:1010000000000420BD120000E5120000E7120000FD
:10101000E9120000EB120000ED12000000000000D9
:10102000000000000000000000000000EF120000BF
:10103000F112000000000000F3120000F5120000A1
:10104000F7120000F7120000F7120000F71200007C
:10105000F7120000F7120000F7120000F71200006C
:10106000F7120000F7120000F7120000F71200005C
:10107000F7120000F7120000F7120000F71200004C
:10108000F7120000F7120000F7120000F71200003C
:10109000F7120000F7120000F7120000F71200002C
:1010A000F7120000F7120000F7120000F71200001C
:1010B000F7120000F712000000000000000000001E
:1010C000F7120000F7120000F7120000F7120000FC
:1010D000F7120000F7120000F7120000F7120000EC
:1010E000F7120000F7120000F712000000000000E5
:1010F00000000000F712000000000000F7120000DE
:1011000000000000000000000000000000000000DF
:1011100000000000000000000000000000000000CF
:1011200000000000000000000000000000000000BF
:1011300000000000000000000000000000000000AF
:10114000000000000000000000000000000000009F
:10115000000000000000000000000000000000008F
:10116000000000000000000000000000000000007F
:10117000000000000000000000000000000000006F
:10118000000000000000000000000000000000005F
:10119000000000000000000000000000000000004F
:1011A000000000000000000000000000000000003F
:1011B000000000000000000000000000000000002F
:1011C000000000000000000000000000000000001F
:1011D000000000000000000000000000000000000F
:1011E00000000000000000000000000000000000FF
:1011F00000000000000000000000000000000000EF
:1012000010B5054C237833B9044B13B10448AFF340
:1012100000800123237010BD780000200000000032
:101220001829000008B5034B1BB103490348AFF36D
:10123000008008BD000000007C000020182900008C
:10124000A3F5803A704700BF174B002B08BF134B24
:101250009D46FFF7F5FF00218B460F461348144AC1
:10126000121A00F053FA0E4B002B00D098470D4B8A
:10127000002B00D098470020002104000D000D48ED
:10128000002802D00C48AFF3008000F01BFA2000C9
:10129000290000F031F800F0EFF900BF000008006D
:1012A0000000000000000000000004207800002082
:1012B000B000002000000000000000000649074ABE
:1012C000074B9B1A03DD043BC858D050FBDC00F0F1
:1012D0008BF8FFF7B9FF0000242900000800002068
:1012E00078000020FEE7FEE7FEE7FEE7FEE7FEE708
:1012F000FEE7FEE7FEE7FEE72DE9F04784B000F0E9
:1013000053F8124B124D0FCBE94689E80F0045F018
:101310000105CA464FF000085AF8047B7F00002FF1
:10132000C8BF00260CDD404600F014F84FF4FA74F4
:101330004FF47A40A847013CFAD10136BE42F2D1BF
:1013400008F10108B8F1040FE6D1E2E794270000A4
:10135000B0270000032808B515D80E4B53F820001D
:101360001F288ABF0C494FF0A04100F01F00D1F8A0
:1013700004350122824022EA03001340C1F8080527
:10138000C1F80C3508BD054B054A0648122100F08E
:1013900055F900BF2428000000030050B8270000C2
:1013A00014280000D027000030B44FF0A0430322DF
:1013B0000C49C3F818274020C3F808054FF480757E
:1013C0004FF400744FF48050C3F82027C3F8085539
:1013D000C1F82427C1F80845C3F83027C3F8080529
:1013E00030BC70470003005010B4814B1B68082BC1
:1013F00021D0804AD2F8883043F47003C2F8883094
:10140000BFF34F8FBFF36F8F794B1B68082B00F032
:10141000AA804FF01023D3F80022002AC0F2B68031
:10142000D3F80432002BC0F2B180734B734A1A60B8
:101430005DF8044B70474FF080414FF08052002020
:10144000C1F80C016E4BC1F81001C1F83805D2F893
:101450000414C3F82015D2F80814C3F82415D2F8E0
:101460000C14C3F82815D2F81014C3F82C15D2F8B0
:101470001414C3F83015D2F81814C3F83415D2F880
:101480001C14C3F84015D2F82014C3F84415D2F840
:101490002414C3F84815D2F82814C3F84C15D2F810
:1014A0002C14C3F85015D2F83014C3F85415D2F8E0
:1014B0003414C3F86015D2F83814C3F86415D2F8A0
:1014C0003C04C3F868054F49D2F84004C3F86C05E2
:1014D0000968D2F84424C3F87025052937D84A4B47
:1014E0005B5C13B1494B4A4A1A604A4B5B5C63B17F
:1014F0003F4B49491B68434AFB20C1F81805082B9C
:1015000011687FF476AF052921D8444B5B5C93B119
:101510004348444B364C02681B682468394922F022
:101520000F0203F00F031343082C096803607FF4D4
:1015300060AF05290BD83C4B5B5C43B12C4B3B4A5D
:101540001B684FF40071082B11607FF452AF4FF00D
:101550008043D3F80024D2077FF54BAF6FF0010230
:10156000C3F8002445E7274B1B68052B08D94FF02B
:1015700010224FF08043D2F80822C3F8582548E7DC
:101580002B4AD35C002B3FF444AFF0E7294A0123F8
:10159000C2F80435D2F80034002BFBD04FF01023F2
:1015A0001221244AC3F80012D2F80034002BFBD0D9
:1015B0004FF0102312211F4AC3F80412D2F800344E
:1015C000002BFBD000231B49C2F80435D1F80034AE
:1015D000002BFBD0BFF34F8F0649174BCA6802F4AC
:1015E000E0621343CB60BFF34F8F00BFFDE700BF46
:1015F0003001001000ED00E0080000200090D00352
:1016000000C00040340100103C2800008C5600400F
:10161000488103003C28000000F000403C28000006
:10162000E40E0040580200103C28000040960240A2
:101630003428000000E001400400FA051FB51446FC
:101640001A46094B1B680546D8684CB1074B0091F8
:10165000CDE9013406492B4600F022F800F00CFCDD
:10166000044B1C46F3E700BF0C000020422800009A
:101670004F2800007D28000008B5074B044613B131
:101680000021AFF30080054B1868836A03B19847C7
:10169000204601F071F800BF000000008028000023
:1016A0000EB403B5014603AB054853F8042B00689C
:1016B000019300F05DF802B05DF804EB03B07047F1
:1016C0000C00002070B50D4D0D4C641BA4100026BD
:1016D000A64209D10B4D0C4C01F050F8641BA4102C
:1016E0000026A64205D170BD55F8043B9847013647
:1016F000EEE755F8043B98470136F2E7700000200A
:101700007000002070000020740000200244034696
:10171000934200D1704703F8011BF9E79368013B3E
:10172000002B10B4936008DA9469A34201DB0A2904
:1017300003D15DF8044B00F0DFBA1368581C106049
:10174000197008465DF8044B7047F8B506460F4619
:101750001446D518AC4201D1002007E014F8011B53
:101760003A463046FFF7DAFF431CF3D1F8BD0000DC
:101770002DE9F04F0D469DB014469846064618B127
:1017800083690BB900F09AFC894B9D421BD17568A7
:101790006B6ED90705D4AB899A0502D4A86D00F009
:1017A0002BFDAB891B0701D52B69EBB929463046C8
:1017B00000F0F4FAC0B16B6EDC070ED54FF0FF30CD
:1017C0001DB0BDE8F08F7B4B9D4201D1B568DFE7CE
:1017D000794B9D4208BFF568DAE7AB899805EDD4EF
:1017E000A86D00F00AFDE9E70023099320238DF896
:1017F0002930CDF80C803023DFF8C0818DF82A30F5
:101800004FF0010923469A4613F8012B0AB1252A05
:10181000F9D1BAEB040B0BD05B4622462946304681
:10182000FFF793FF013000F0AA80099A5A44099209
:101830009AF80030002B00F0A28000234FF0FF3216
:10184000CDE905230AF1010A049307938DF853307B
:101850001A935446052214F8011B584800F038FD2D
:10186000049AD8B9D10644BF20238DF8533013070A
:1018700044BF2B238DF853309AF800302A2B15D013
:10188000079A544600204FF00A0C214611F8013BFC
:10189000303B092B4ED9B0B1079214E0A0EB0803FE
:1018A00009FA03F313430493A246D2E7039B191DDD
:1018B0001B680391002BBBBF5B4242F002020793FF
:1018C0000793B8BF049223782E2B0CD163782A2B70
:1018D00035D1039B1A1D1B680392002BB8BF4FF034
:1018E000FF3302340593DFF8E4A021780322504649
:1018F00000F0EEFC40B14023A0EB0A0003FA00F038
:10190000049B03430134049314F8011B2C488DF805
:101910002810062200F0DCFC00283FD0294B1BBB1E
:10192000039B073323F0070308330393099B3B44CE
:10193000099367E70CFB02320C460120A5E7002360
:101940000134059319464FF00A0C204610F8012B7C
:10195000303A092A03D9002BC5D00591C3E70CFB07
:10196000012104460123F0E703AB00932A46164BFE
:1019700004A93046AFF300800746781CD6D16B6EC1
:10198000D90705D4AB899A0502D4A86D00F035FCBF
:10199000AB895B063FF512AF099811E703AB0093E3
:1019A0002A46094B04A9304600F080F8E4E700BF5E
:1019B000D8280000F8280000B8280000842800007B
:1019C0008E280000000000004B1700008A2800004D
:1019D0002DE9F047164699468A680B69DDF82080A4
:1019E0009342B8BF1346336091F8432007460C4634
:1019F0000AB1013333602368990642BF336802336A
:101A00003360256815F0060506D104F1190AE3686C
:101A100032689B1AAB4226DC94F84320131E2268DE
:101A200018BF012392062BD404F1430249463846DD
:101A3000C04701301ED02368E568326803F0060312
:101A4000042B08BFAD1AA36822690CBF25EAE5750F
:101A500000259342C4BF9B1AED1800261A34B542E4
:101A60001AD1002008E00123524649463846C047B3
:101A7000013003D14FF0FF30BDE8F0870135C6E7F4
:101A8000E1185A1C302081F84300224494F8451094
:101A900082F843100233C7E70123224649463846FD
:101AA000C0470130E6D00136D9E700002DE9FF47F5
:101AB0000C469146277E0C99782F80469A4604F171
:101AC000430207D8622F0AD8002F00F0D880582F81
:101AD00000F0A38004F1420684F842703AE0A7F1D6
:101AE0006303152BF6D801A050F823F0451B000026
:101AF000591B0000D51A0000D51A0000D51A0000A5
:101B0000D51A0000591B0000D51A0000D51A000094
:101B1000D51A0000D51A0000651C0000891B0000C2
:101B2000471C0000D51A0000D51A0000871C0000D1
:101B3000D51A0000891B0000D51A0000D51A000034
:101B40004F1C00000B681A1D1B680A6004F1420656
:101B500084F842300123A3E0256808682E0600F1CE
:101B600004030AD505680B60002D03DA2D236D42AE
:101B700084F843305E480A2319E015F0400F0568E9
:101B80000B6018BF2DB2EFE70B682568181D0860C1
:101B9000280601D51D6802E06906FBD51D8854485A
:101BA0006F2F0CBF08230A23002184F843106668B6
:101BB000A660002EA2BF216821F0040121600DB9AA
:101BC000002E4DD01646B5FBF3F103FB1157C75D50
:101BD00006F8017D2F46BB420D46F4D9082B0BD1E8
:101BE0002368DF0708D5236961689942DEBF302387
:101BF00006F8013C06F1FF36921B2261CDF800A0E9
:101C00004B4603AA21464046FFF7E2FE01304CD185
:101C10004FF0FF3004B0BDE8F087354884F84570D8
:101C200023680E681F0656F8045B0E6014D5D907AA
:101C300044BF43F0200323601DB9236823F0200331
:101C400023601023B0E7236843F020032360782348
:101C5000284884F84530E3E75E0648BFADB2E6E7C2
:101C60001646BBE70B68266860691D1D0D603506CA
:101C70001B6801D5186002E07106FBD518800023AF
:101C800023611646BAE70B681A1D0A601E6862686F
:101C90000021304600F01CFB08B1801B60606368C7
:101CA0002361002384F84330A8E72369324649467C
:101CB0004046D0470130ABD023689B0713D4E0687F
:101CC000039B9842B8BF1846A4E701233246494611
:101CD0004046D04701309BD00135E36803995B1A39
:101CE000AB42F2DCEBE7002504F11906F5E700BF93
:101CF00095280000A6280000F8B50E4614460546B3
:101D000018B183690BB900F0D9F9214B9C422BD152
:101D10006C68A369A360A3891A072FD523696BB3E5
:101D200023692068C01A6369F6B28342374604DC2F
:101D30002146284600F02EF930BBA368013BA36082
:101D400023685A1C22601E7063690130834204D0EC
:101D5000A389DB0706D50A2E04D12146284600F0C8
:101D600019F988B93846F8BD0A4B9C4201D1AC68D4
:101D7000CFE7094B9C4208BFEC68CAE721462846DA
:101D800000F00CF80028CBD04FF0FF37EAE700BF97
:101D9000D8280000F8280000B8280000324B70B5A1
:101DA0001D6806460C4625B1AB6913B9284600F0FC
:101DB00085F92E4B9C420FD16C68A389B4F90C2095
:101DC00019072CD4DD0611D40923336042F04003F7
:101DD000A3814FF0FF303EE0254B9C4201D1AC681F
:101DE000EBE7244B9C4208BFEC68E6E7580712D5A6
:101DF000616B41B104F14403994202D0304600F0D6
:101E0000B7FA00236363A38923F02403A38100238B
:101E1000636023692360A38943F00803A3812369D6
:101E20004BB9A38903F42073B3F5007F03D0214697
:101E3000304600F007FAA089B4F90C2010F0010335
:101E40000AD00023A36063695B42A361236943B99D
:101E500010F08000BAD170BD810758BF6369A360DC
:101E6000F4E70020F7E700BF0C000020D8280000AE
:101E7000F8280000B828000008B5062000F05AFB3A
:101E8000012000F079FC00008A892DE9F041054627
:101E900010070C4658D44B68002B05DC0B6C002B4C
:101EA00002DC0020BDE8F081E66A002EF9D00023B4
:101EB00012F480522F682B6032D0606DA3895A07CC
:101EC00005D56368C01A636B0BB1236CC01A00237D
:101ED0000246E66A216A2846B047431CA38906D118
:101EE00029681D292CD82A4ACA40D60728D500229D
:101EF0006260D9042269226004D5421C01D12B689A
:101F000003B96065616B2F600029CAD004F14403F6
:101F1000994202D0284600F02BFA00206063C1E706
:101F2000216A01232846B047411CC7D12B68002BEA
:101F3000C4D01D2B01D0162B01D12F60B1E7A3898E
:101F400043F04003A381ADE70F69002FA9D09307A9
:101F50000E6808BF4B690F6018BF0023A6EB070887
:101F60008B60B8F1000F9CDD216AA66A43463A46B1
:101F70002846B047002806DCA38943F04003A3812C
:101F80004FF0FF308EE70744A8EB0008E9E700BFF9
:101F90000100402038B50B6905460C4613B90025F1
:101FA000284638BD18B183690BB900F087F8144B87
:101FB0009C421BD16C68B4F90C30002BEFD0626EE0
:101FC000D00704D4990502D4A06D00F015F9284675
:101FD0002146FFF759FF636EDA070546E0D4A3896F
:101FE0009B05DDD4A06D00F008F9D9E7054B9C42B4
:101FF00001D1AC68DFE7044B9C4208BFEC68DAE72C
:10200000D8280000F8280000B8280000002310B5E8
:102010000446C0E90033C0E904338360818143662C
:10202000C2818361194608225C30FFF76FFB054BC4
:102030006362054BA362054BE362054B2462236395
:1020400010BD00BF6D2500008F250000C7250000D2
:10205000EB250000014900F0AFB800BF951F00005C
:1020600070B54A1E682555430E4605F1740100F00F
:10207000CFF9044640B10021C0E900160C30A06041
:1020800005F16802FFF742FB204670BD014800F0F1
:10209000B3B800BFA8000020014800F0AEB800BFF0
:1020A000A8000020014800F0A7B800BFA30000204E
:1020B000014800F0A2B800BFA300002010B50446FC
:1020C000FFF7F0FFA3691BB1BDE81040FFF7F0BFB9
:1020D000C4E912332365134B134A1B68A262A3425F
:1020E00004BF0123A361204600F020F86060204671
:1020F00000F01CF8A060204600F018F80022E06014
:1021000004216068FFF782FFA06801220921FFF720
:102110007DFFE06802221221FFF778FF0123A3610F
:10212000D2E700BF8028000055200000F8B5074620
:10213000FFF7ACFF1E4B1E68B36913B93046FFF7BB
:10214000BDFF4836D6E90134013B03D533680BB3F4
:102150003668F7E7B4F90C50D5B9164BE36004F1D3
:102160005800656600F047F8FFF796FFC4E901558F
:10217000C4E904552560A5610822294604F15C00E4
:10218000FFF7C4FAC4E90D55C4E912552046F8BD5D
:102190006834D9E704213846FFF762FF044630600F
:1021A0000028D5D1FFF778FF0C233B60EEE700BF96
:1021B000802800000100FFFF2DE9F843064688460D
:1021C00000F148040027D4E90195B9F1010905D5CA
:1021D0002468002CF7D13846BDE8F883AB89012B81
:1021E00007D9B5F90E30013303D029463046C04730
:1021F00007436835E9E770477047704770B50E468A
:10220000B1F90E10002996B014461D4607DA0023D6
:102210002B60B3891A0610D44FF480630EE06A462F
:1022200000F00AFA0028F2DB019A02F47042A2F5EB
:1022300000535A425A412A60EEE7402300202360AF
:1022400016B070BD8B8973B59D0706460C4607D541
:1022500004F14703236023610123636102B070BD71
:1022600001AB6A46FFF7CAFF00990546304600F009
:10227000CFF848B9B4F90C309A05EFD423F0030332
:1022800043F00203A381E3E70D4BB362A38920600F
:1022900043F08003A381009B6361019B20615BB1DC
:1022A000B4F90E10304600F0D9F928B1A38923F013
:1022B000030343F00103A381A0890543A581CDE772
:1022C0005520000000000000000000000000000099
:1022D00001F0FF01102A2BDB10F0070F08D010F8D7
:1022E000013B013A8B422DD010F0070F42B3F6D1DB
:1022F000F0B441EA012141EA014122F007047FF0F4
:1023000000070023F0E80256083C85EA010586EA4A
:10231000010685FA47F5A3FA87F586FA47F6A5FA86
:1023200087F68EB9EED1F0BC01F0FF0102F0070292
:1023300032B110F8013B013A83EA010313B1F8D13D
:102340000020704701387047002D06BF354603381E
:10235000073815F0010F07D1013015F4807F02BF57
:10236000013015F4C03F0130F0BC0138704700BFA8
:1023700037B5002948D051F8043C0190002BA1F159
:102380000404B8BFE41800F08BF9204A01981368E0
:10239000154633B96360146003B0BDE8304000F007
:1023A00085B9A3420BD921686218934204BF1A6809
:1023B0005B68636004BF521822602C60ECE71A4629
:1023C0005B680BB1A342FAD911685518A5420BD12D
:1023D000246821445418A3421160DDD11C685B6855
:1023E000536021441160D7E702D90C230360D3E77F
:1023F000256861198B4204BF19685B68636004BF7C
:10240000491921605460C7E703B030BD9400002033
:10241000F8B5CD1C25F0030508350C2D38BF0C256B
:10242000002D064601DBA94203D90C2333600020AE
:10243000F8BD00F035F921490A6814469CB9204FCF
:102440003B6823B92146304600F03CF83860294605
:10245000304600F037F8431C23D10C23336030465C
:1024600000F024F9E3E723685B1B17D40B2B03D997
:1024700023601C44256004E06368A2420CBF0B602B
:102480005360304600F012F904F10B00231D20F0D8
:102490000700C21ACCD01B1AA350C9E722466468B1
:1024A000CCE7C41C24F00304A042E3D0211A304638
:1024B00000F008F80130DDD1CFE700BF9400002024
:1024C0009800002038B5064D0023044608462B60CE
:1024D00000F03CF9431C02D12B6803B1236038BDE6
:1024E000AC0000201F2938B504460D4604D9162338
:1024F00003604FF0FF3038BD426C12B152F821300A
:102500004BB9204600F030F82A4601462046BDE887
:10251000384000F017B8012B0AD0591C03D11623FC
:1025200003600120E7E7002442F825402846984749
:102530000020E0E7024B01461868FFF7D3BF00BF59
:102540000C00002038B5074D00230446084611460C
:102550002B6000F0E3F8431C02D12B6803B1236029
:1025600038BD00BFAC00002000F0C8B810B50C4664
:10257000B1F90E1000F0A0F80028ABBF636DA3897D
:102580001B1823F48053ACBF6365A38110BD2DE9F4
:10259000F0411F468B89DB0505460C46164605D5DE
:1025A000B1F90E100223002200F068F8A389B4F9F3
:1025B0000E1023F48053A38132463B462846BDE8E3
:1025C000F04100F017B810B50C46B1F90E1000F04C
:1025D00055F8431CA38915BF606523F4805343F469
:1025E0008053A38118BFA38110BDB1F90E1000F074
:1025F00013B8000038B5074D0446084611460022BE
:102600002A601A4600F0B0F8431C02D12B6803B1CF
:10261000236038BDAC00002038B5064D00230446C9
:1026200008462B6000F05AF8431C02D12B6803B116
:10263000236038BDAC00002038B5074D00230446A8
:10264000084611462B6000F051F8431C02D12B685C
:1026500003B1236038BD00BFAC00002038B5064D83
:102660000023044608462B6000F050F8431C02D1BA
:102670002B6803B1236038BDAC00002038B5074D8E
:1026800004460846114600222A601A4600F04EF819
:10269000431C02D12B6803B1236038BDAC0000207D
:1026A0000148FFF7A9BD00BFA40000200148FFF7C3
:1026B000A4BD00BFA400002038B5074D044608465D
:1026C000114600222A601A4600F038F8431C02D155
:1026D0002B6803B1236038BDAC000020024B5822A8
:1026E0001A604FF0FF307047AC000020024B5822B8
:1026F0001A604FF0FF307047AC000020024B5822A8
:102700001A604FF0FF307047AC000020024B582297
:102710001A600020704700BFAC000020024B582216
:102720001A604FF0FF307047AC000020024B582277
:102730001A604FF0FF307047AC000020024B582267
:102740001A604FF0FF307047AC000020044A054982
:102750001368002B08BF0B461844106018467047DA
:102760009C000020B0000020024B58221A604FF05D
:10277000FF307047AC000020FEE700BFF8B500BF97
:10278000F8BC08BC9E467047F8B500BFF8BC08BC52
:102790009E4670470600000005000000090000008A
:1027A0000800000000000000000000000000000021
:1027B0000338FDD8704700006C65645F6964782059
:1027C0003C204C4544535F4E554D4245520000005D
:1027D0002F686F6D652F757365722F70726F6A65E4
:1027E00063742F455354432D70726F6A6563742F61
:1027F0007372632F2F6D6F64756C65732F677069CB
:102800006F5F6C65642F6770696F5F6C65642E63C2
:10281000000000006770696F5F6C65645F696E76C9
:102820006572740006000000080000002900000026
:102830000C00000000000000010100000100000089
:1028400000002C2066756E6374696F6E3A2000611B
:102850007373657274696F6E20222573222066611E
:10286000696C65643A2066696C6520222573222CA8
:10287000206C696E65202564257325730A000000AD
:1028800010000020232D302B2000686C4C00656662
:1028900067454647003031323334353637383941B1
:1028A00042434445460030313233343536373839C7
:1028B00061626364656600000000000000000000C3
:1028C0000000000000000000000000000000000008
:1028D00000000000000000000000000000000000F8
:1028E00000000000000000000000000000000000E8
:1028F00000000000000000000000000000000000D8
:1029000000000000000000000000000000000000C7
:0C291000000000000000000000000000BB
:08291C0024E9FF7F0100000027
:102924000090D0031000002000000000D828000010
:10293400F8280000B8280000000000000000000093
:102944000000000000000000000000000000000083
:102954000000000000000000000000000000000073
:102964000000000000000000000000000000000063
:102974000000000000000000000000000000000053
:1029840000000000000000002512000001120000F9
:04000003000012BD2A
:00000001FF
